{
  "_format": "hh-sol-artifact-1",
  "contractName": "AssetManager",
  "sourceName": "contracts/AssetManager.sol",
  "abi": [
    {
      "inputs": [],
      "stateMutability": "nonpayable",
      "type": "constructor"
    },
    {
      "inputs": [
        {
          "internalType": "address",
          "name": "_admin",
          "type": "address"
        }
      ],
      "name": "addAdmin",
      "outputs": [],
      "stateMutability": "nonpayable",
      "type": "function"
    },
    {
      "inputs": [
        {
          "internalType": "string",
          "name": "name",
          "type": "string"
        },
        {
          "internalType": "string",
          "name": "ic",
          "type": "string"
        },
        {
          "internalType": "string",
          "name": "contactNo",
          "type": "string"
        },
        {
          "internalType": "string",
          "name": "Address",
          "type": "string"
        }
      ],
      "name": "addCustomerData",
      "outputs": [
        {
          "internalType": "uint256",
          "name": "",
          "type": "uint256"
        }
      ],
      "stateMutability": "nonpayable",
      "type": "function"
    },
    {
      "inputs": [
        {
          "internalType": "uint256",
          "name": "customerId",
          "type": "uint256"
        },
        {
          "internalType": "string",
          "name": "name",
          "type": "string"
        },
        {
          "internalType": "string",
          "name": "ic",
          "type": "string"
        },
        {
          "internalType": "string",
          "name": "contactNo",
          "type": "string"
        },
        {
          "internalType": "string",
          "name": "Address",
          "type": "string"
        }
      ],
      "name": "addCustomerInheritor",
      "outputs": [],
      "stateMutability": "nonpayable",
      "type": "function"
    },
    {
      "inputs": [
        {
          "internalType": "uint256",
          "name": "customerId",
          "type": "uint256"
        },
        {
          "internalType": "string",
          "name": "title",
          "type": "string"
        },
        {
          "internalType": "string",
          "name": "details",
          "type": "string"
        },
        {
          "internalType": "string",
          "name": "gambar",
          "type": "string"
        }
      ],
      "name": "addCustomerProperty",
      "outputs": [],
      "stateMutability": "nonpayable",
      "type": "function"
    },
    {
      "inputs": [
        {
          "internalType": "uint256",
          "name": "",
          "type": "uint256"
        }
      ],
      "name": "admin",
      "outputs": [
        {
          "internalType": "address",
          "name": "",
          "type": "address"
        }
      ],
      "stateMutability": "view",
      "type": "function"
    },
    {
      "inputs": [],
      "name": "customerIdCounter",
      "outputs": [
        {
          "internalType": "uint256",
          "name": "",
          "type": "uint256"
        }
      ],
      "stateMutability": "view",
      "type": "function"
    },
    {
      "inputs": [
        {
          "internalType": "uint256",
          "name": "",
          "type": "uint256"
        },
        {
          "internalType": "uint256",
          "name": "",
          "type": "uint256"
        }
      ],
      "name": "customerInheritors",
      "outputs": [
        {
          "internalType": "string",
          "name": "name",
          "type": "string"
        },
        {
          "internalType": "string",
          "name": "ic",
          "type": "string"
        },
        {
          "internalType": "string",
          "name": "contactNo",
          "type": "string"
        },
        {
          "internalType": "string",
          "name": "Address",
          "type": "string"
        }
      ],
      "stateMutability": "view",
      "type": "function"
    },
    {
      "inputs": [
        {
          "internalType": "uint256",
          "name": "",
          "type": "uint256"
        },
        {
          "internalType": "uint256",
          "name": "",
          "type": "uint256"
        }
      ],
      "name": "customerProperties",
      "outputs": [
        {
          "internalType": "string",
          "name": "title",
          "type": "string"
        },
        {
          "internalType": "string",
          "name": "details",
          "type": "string"
        },
        {
          "internalType": "string",
          "name": "gambar",
          "type": "string"
        }
      ],
      "stateMutability": "view",
      "type": "function"
    },
    {
      "inputs": [
        {
          "internalType": "uint256",
          "name": "",
          "type": "uint256"
        }
      ],
      "name": "customers",
      "outputs": [
        {
          "internalType": "string",
          "name": "name",
          "type": "string"
        },
        {
          "internalType": "string",
          "name": "ic",
          "type": "string"
        },
        {
          "internalType": "string",
          "name": "contactNo",
          "type": "string"
        },
        {
          "internalType": "string",
          "name": "Address",
          "type": "string"
        }
      ],
      "stateMutability": "view",
      "type": "function"
    },
    {
      "inputs": [
        {
          "internalType": "uint256",
          "name": "customerId",
          "type": "uint256"
        }
      ],
      "name": "deleteCustomerData",
      "outputs": [],
      "stateMutability": "nonpayable",
      "type": "function"
    },
    {
      "inputs": [
        {
          "internalType": "uint256",
          "name": "customerId",
          "type": "uint256"
        },
        {
          "internalType": "uint256",
          "name": "inheritorIndex",
          "type": "uint256"
        }
      ],
      "name": "deleteCustomerInheritor",
      "outputs": [],
      "stateMutability": "nonpayable",
      "type": "function"
    },
    {
      "inputs": [
        {
          "internalType": "uint256",
          "name": "customerId",
          "type": "uint256"
        },
        {
          "internalType": "uint256",
          "name": "propertyIndex",
          "type": "uint256"
        }
      ],
      "name": "deleteCustomerProperty",
      "outputs": [],
      "stateMutability": "nonpayable",
      "type": "function"
    },
    {
      "inputs": [],
      "name": "getAllCustomers",
      "outputs": [
        {
          "components": [
            {
              "internalType": "string",
              "name": "name",
              "type": "string"
            },
            {
              "internalType": "string",
              "name": "ic",
              "type": "string"
            },
            {
              "internalType": "string",
              "name": "contactNo",
              "type": "string"
            },
            {
              "internalType": "string",
              "name": "Address",
              "type": "string"
            }
          ],
          "internalType": "struct AssetManager.CustomerData[]",
          "name": "",
          "type": "tuple[]"
        }
      ],
      "stateMutability": "view",
      "type": "function"
    },
    {
      "inputs": [
        {
          "internalType": "uint256",
          "name": "customerId",
          "type": "uint256"
        }
      ],
      "name": "getCustomerData",
      "outputs": [
        {
          "components": [
            {
              "internalType": "string",
              "name": "name",
              "type": "string"
            },
            {
              "internalType": "string",
              "name": "ic",
              "type": "string"
            },
            {
              "internalType": "string",
              "name": "contactNo",
              "type": "string"
            },
            {
              "internalType": "string",
              "name": "Address",
              "type": "string"
            }
          ],
          "internalType": "struct AssetManager.CustomerData",
          "name": "",
          "type": "tuple"
        }
      ],
      "stateMutability": "view",
      "type": "function"
    },
    {
      "inputs": [
        {
          "internalType": "uint256",
          "name": "customerId",
          "type": "uint256"
        }
      ],
      "name": "getCustomerInheritors",
      "outputs": [
        {
          "components": [
            {
              "internalType": "string",
              "name": "name",
              "type": "string"
            },
            {
              "internalType": "string",
              "name": "ic",
              "type": "string"
            },
            {
              "internalType": "string",
              "name": "contactNo",
              "type": "string"
            },
            {
              "internalType": "string",
              "name": "Address",
              "type": "string"
            }
          ],
          "internalType": "struct AssetManager.Inheritor[]",
          "name": "",
          "type": "tuple[]"
        }
      ],
      "stateMutability": "view",
      "type": "function"
    },
    {
      "inputs": [
        {
          "internalType": "uint256",
          "name": "customerId",
          "type": "uint256"
        }
      ],
      "name": "getCustomerProperties",
      "outputs": [
        {
          "components": [
            {
              "internalType": "string",
              "name": "title",
              "type": "string"
            },
            {
              "internalType": "string",
              "name": "details",
              "type": "string"
            },
            {
              "internalType": "string",
              "name": "gambar",
              "type": "string"
            }
          ],
          "internalType": "struct AssetManager.Properties[]",
          "name": "",
          "type": "tuple[]"
        }
      ],
      "stateMutability": "view",
      "type": "function"
    },
    {
      "inputs": [
        {
          "internalType": "uint256",
          "name": "",
          "type": "uint256"
        }
      ],
      "name": "inheritors",
      "outputs": [
        {
          "internalType": "string",
          "name": "name",
          "type": "string"
        },
        {
          "internalType": "string",
          "name": "ic",
          "type": "string"
        },
        {
          "internalType": "string",
          "name": "contactNo",
          "type": "string"
        },
        {
          "internalType": "string",
          "name": "Address",
          "type": "string"
        }
      ],
      "stateMutability": "view",
      "type": "function"
    },
    {
      "inputs": [
        {
          "internalType": "address",
          "name": "_addr",
          "type": "address"
        }
      ],
      "name": "isAdmin",
      "outputs": [
        {
          "internalType": "bool",
          "name": "",
          "type": "bool"
        }
      ],
      "stateMutability": "view",
      "type": "function"
    },
    {
      "inputs": [],
      "name": "owner",
      "outputs": [
        {
          "internalType": "address",
          "name": "",
          "type": "address"
        }
      ],
      "stateMutability": "view",
      "type": "function"
    },
    {
      "inputs": [
        {
          "internalType": "uint256",
          "name": "",
          "type": "uint256"
        }
      ],
      "name": "properties",
      "outputs": [
        {
          "internalType": "string",
          "name": "title",
          "type": "string"
        },
        {
          "internalType": "string",
          "name": "details",
          "type": "string"
        },
        {
          "internalType": "string",
          "name": "gambar",
          "type": "string"
        }
      ],
      "stateMutability": "view",
      "type": "function"
    },
    {
      "inputs": [
        {
          "internalType": "uint256",
          "name": "customerId",
          "type": "uint256"
        },
        {
          "internalType": "string",
          "name": "name",
          "type": "string"
        },
        {
          "internalType": "string",
          "name": "ic",
          "type": "string"
        },
        {
          "internalType": "string",
          "name": "contactNo",
          "type": "string"
        },
        {
          "internalType": "string",
          "name": "Address",
          "type": "string"
        }
      ],
      "name": "updateCustomerData",
      "outputs": [],
      "stateMutability": "nonpayable",
      "type": "function"
    },
    {
      "inputs": [
        {
          "internalType": "uint256",
          "name": "customerId",
          "type": "uint256"
        },
        {
          "internalType": "uint256",
          "name": "inheritorIndex",
          "type": "uint256"
        },
        {
          "internalType": "string",
          "name": "name",
          "type": "string"
        },
        {
          "internalType": "string",
          "name": "ic",
          "type": "string"
        },
        {
          "internalType": "string",
          "name": "contactNo",
          "type": "string"
        },
        {
          "internalType": "string",
          "name": "Address",
          "type": "string"
        }
      ],
      "name": "updateCustomerInheritor",
      "outputs": [],
      "stateMutability": "nonpayable",
      "type": "function"
    },
    {
      "inputs": [
        {
          "internalType": "uint256",
          "name": "customerId",
          "type": "uint256"
        },
        {
          "internalType": "uint256",
          "name": "propertyIndex",
          "type": "uint256"
        },
        {
          "internalType": "string",
          "name": "title",
          "type": "string"
        },
        {
          "internalType": "string",
          "name": "details",
          "type": "string"
        },
        {
          "internalType": "string",
          "name": "gambar",
          "type": "string"
        }
      ],
      "name": "updateCustomerProperty",
      "outputs": [],
      "stateMutability": "nonpayable",
      "type": "function"
    }
  ],
  "bytecode": "0x6080604052348015600f57600080fd5b50336000806101000a81548173ffffffffffffffffffffffffffffffffffffffff021916908373ffffffffffffffffffffffffffffffffffffffff1602179055506001600781905550613e67806100676000396000f3fe608060405234801561001057600080fd5b506004361061014d5760003560e01c80638da5cb5b116100c3578063d13e7f391161007c578063d13e7f39146103c8578063d599a1c6146103e4578063e1c900a714610414578063f2a314fa14610444578063f3ab005d14610477578063f7b10808146104935761014d565b80638da5cb5b146102da578063a8f8ba7d146102f8578063ad5f7cc514610316578063aed5656d14610332578063bac43aa014610362578063c0abda2a146103955761014d565b80634192effb116101155780634192effb14610230578063522694f91461024c5780635a14d1651461026857806370480275146102845780637da67ba8146102a057806387eabdd7146102be5761014d565b80630b659ea1146101525780632019523a1461018257806324d7806c146101b257806328c15acd146101e257806341114dce146101fe575b600080fd5b61016c60048036038101906101679190612be2565b6104c5565b6040516101799190612d17565b60405180910390f35b61019c60048036038101906101979190612e6e565b61079b565b6040516101a99190612f54565b60405180910390f35b6101cc60048036038101906101c79190612fcd565b610912565b6040516101d99190613015565b60405180910390f35b6101fc60048036038101906101f79190613030565b6109ba565b005b61021860048036038101906102139190613030565b610b24565b604051610227939291906130ba565b60405180910390f35b61024a60048036038101906102459190613106565b610d03565b005b61026660048036038101906102619190612be2565b610eb5565b005b610282600480360381019061027d91906131f1565b61100d565b005b61029e60048036038101906102999190612fcd565b6111a2565b005b6102a8611296565b6040516102b591906133e6565b60405180910390f35b6102d860048036038101906102d39190613408565b61153d565b005b6102e2611745565b6040516102ef9190613514565b60405180910390f35b610300611769565b60405161030d9190612f54565b60405180910390f35b610330600480360381019061032b919061352f565b61176f565b005b61034c60048036038101906103479190612be2565b611932565b604051610359919061371e565b60405180910390f35b61037c60048036038101906103779190613030565b611bac565b60405161038c9493929190613740565b60405180910390f35b6103af60048036038101906103aa9190612be2565b611e19565b6040516103bf9493929190613740565b60405180910390f35b6103e260048036038101906103dd9190613106565b612079565b005b6103fe60048036038101906103f99190612be2565b61223c565b60405161040b9190613514565b60405180910390f35b61042e60048036038101906104299190612be2565b61227b565b60405161043b91906138db565b60405180910390f35b61045e60048036038101906104599190612be2565b612587565b60405161046e9493929190613740565b60405180910390f35b610491600480360381019061048c9190613030565b6127e7565b005b6104ad60048036038101906104a89190612be2565b612941565b6040516104bc939291906130ba565b60405180910390f35b6104cd612b13565b816000811180156104df575060075481105b61051e576040517f08c379a000000000000000000000000000000000000000000000000000000000815260040161051590613949565b60405180910390fd5b6003838154811061053257610531613969565b5b906000526020600020906004020160405180608001604052908160008201805461055b906139c7565b80601f0160208091040260200160405190810160405280929190818152602001828054610587906139c7565b80156105d45780601f106105a9576101008083540402835291602001916105d4565b820191906000526020600020905b8154815290600101906020018083116105b757829003601f168201915b505050505081526020016001820180546105ed906139c7565b80601f0160208091040260200160405190810160405280929190818152602001828054610619906139c7565b80156106665780601f1061063b57610100808354040283529160200191610666565b820191906000526020600020905b81548152906001019060200180831161064957829003601f168201915b5050505050815260200160028201805461067f906139c7565b80601f01602080910402602001604051908101604052809291908181526020018280546106ab906139c7565b80156106f85780601f106106cd576101008083540402835291602001916106f8565b820191906000526020600020905b8154815290600101906020018083116106db57829003601f168201915b50505050508152602001600382018054610711906139c7565b80601f016020809104026020016040519081016040528092919081815260200182805461073d906139c7565b801561078a5780601f1061075f5761010080835404028352916020019161078a565b820191906000526020600020905b81548152906001019060200180831161076d57829003601f168201915b505050505081525050915050919050565b60006107a633610912565b806107fc575060008054906101000a900473ffffffffffffffffffffffffffffffffffffffff1673ffffffffffffffffffffffffffffffffffffffff163373ffffffffffffffffffffffffffffffffffffffff16145b61083b576040517f08c379a000000000000000000000000000000000000000000000000000000000815260040161083290613a44565b60405180910390fd5b60006040518060800160405280878152602001868152602001858152602001848152509050600381908060018154018082558091505060019003906000526020600020906004020160009091909190915060008201518160000190816108a19190613c10565b5060208201518160010190816108b79190613c10565b5060408201518160020190816108cd9190613c10565b5060608201518160030190816108e39190613c10565b505050600060075490506007600081548092919061090090613d11565b91905055508092505050949350505050565b600080600090505b6001805490508110156109af578273ffffffffffffffffffffffffffffffffffffffff166001828154811061095257610951613969565b5b9060005260206000200160009054906101000a900473ffffffffffffffffffffffffffffffffffffffff1673ffffffffffffffffffffffffffffffffffffffff16036109a25760019150506109b5565b808060010191505061091a565b50600090505b919050565b6109c333610912565b80610a19575060008054906101000a900473ffffffffffffffffffffffffffffffffffffffff1673ffffffffffffffffffffffffffffffffffffffff163373ffffffffffffffffffffffffffffffffffffffff16145b610a58576040517f08c379a0000000000000000000000000000000000000000000000000000000008152600401610a4f90613a44565b60405180910390fd5b81600081118015610a6a575060075481105b610aa9576040517f08c379a0000000000000000000000000000000000000000000000000000000008152600401610aa090613949565b60405180910390fd5b600660008481526020019081526020016000208281548110610ace57610acd613969565b5b906000526020600020906004020160008082016000610aed9190612b3b565b600182016000610afd9190612b3b565b600282016000610b0d9190612b3b565b600382016000610b1d9190612b3b565b5050505050565b60056020528160005260406000208181548110610b4057600080fd5b906000526020600020906003020160009150915050806000018054610b64906139c7565b80601f0160208091040260200160405190810160405280929190818152602001828054610b90906139c7565b8015610bdd5780601f10610bb257610100808354040283529160200191610bdd565b820191906000526020600020905b815481529060010190602001808311610bc057829003601f168201915b505050505090806001018054610bf2906139c7565b80601f0160208091040260200160405190810160405280929190818152602001828054610c1e906139c7565b8015610c6b5780601f10610c4057610100808354040283529160200191610c6b565b820191906000526020600020905b815481529060010190602001808311610c4e57829003601f168201915b505050505090806002018054610c80906139c7565b80601f0160208091040260200160405190810160405280929190818152602001828054610cac906139c7565b8015610cf95780601f10610cce57610100808354040283529160200191610cf9565b820191906000526020600020905b815481529060010190602001808311610cdc57829003601f168201915b5050505050905083565b610d0c33610912565b80610d62575060008054906101000a900473ffffffffffffffffffffffffffffffffffffffff1673ffffffffffffffffffffffffffffffffffffffff163373ffffffffffffffffffffffffffffffffffffffff16145b610da1576040517f08c379a0000000000000000000000000000000000000000000000000000000008152600401610d9890613a44565b60405180910390fd5b600085118015610db2575060075485105b610df1576040517f08c379a0000000000000000000000000000000000000000000000000000000008152600401610de890613da5565b60405180910390fd5b60006040518060800160405280868152602001858152602001848152602001838152509050600660008781526020019081526020016000208190806001815401808255809150506001900390600052602060002090600402016000909190919091506000820151816000019081610e689190613c10565b506020820151816001019081610e7e9190613c10565b506040820151816002019081610e949190613c10565b506060820151816003019081610eaa9190613c10565b505050505050505050565b610ebe33610912565b80610f14575060008054906101000a900473ffffffffffffffffffffffffffffffffffffffff1673ffffffffffffffffffffffffffffffffffffffff163373ffffffffffffffffffffffffffffffffffffffff16145b610f53576040517f08c379a0000000000000000000000000000000000000000000000000000000008152600401610f4a90613a44565b60405180910390fd5b80600081118015610f65575060075481105b610fa4576040517f08c379a0000000000000000000000000000000000000000000000000000000008152600401610f9b90613949565b60405180910390fd5b60038281548110610fb857610fb7613969565b5b906000526020600020906004020160008082016000610fd79190612b3b565b600182016000610fe79190612b3b565b600282016000610ff79190612b3b565b6003820160006110079190612b3b565b50505050565b61101633610912565b8061106c575060008054906101000a900473ffffffffffffffffffffffffffffffffffffffff1673ffffffffffffffffffffffffffffffffffffffff163373ffffffffffffffffffffffffffffffffffffffff16145b6110ab576040517f08c379a00000000000000000000000000000000000000000000000000000000081526004016110a290613a44565b60405180910390fd5b6000841180156110bc575060075484105b6110fb576040517f08c379a00000000000000000000000000000000000000000000000000000000081526004016110f290613da5565b60405180910390fd5b6000604051806060016040528085815260200184815260200183815250905060056000868152602001908152602001600020819080600181540180825580915050600190039060005260206000209060030201600090919091909150600082015181600001908161116c9190613c10565b5060208201518160010190816111829190613c10565b5060408201518160020190816111989190613c10565b5050505050505050565b60008054906101000a900473ffffffffffffffffffffffffffffffffffffffff1673ffffffffffffffffffffffffffffffffffffffff163373ffffffffffffffffffffffffffffffffffffffff1614611230576040517f08c379a000000000000000000000000000000000000000000000000000000000815260040161122790613e11565b60405180910390fd5b6001819080600181540180825580915050600190039060005260206000200160009091909190916101000a81548173ffffffffffffffffffffffffffffffffffffffff021916908373ffffffffffffffffffffffffffffffffffffffff16021790555050565b60606003805480602002602001604051908101604052809291908181526020016000905b8282101561153457838290600052602060002090600402016040518060800160405290816000820180546112ed906139c7565b80601f0160208091040260200160405190810160405280929190818152602001828054611319906139c7565b80156113665780601f1061133b57610100808354040283529160200191611366565b820191906000526020600020905b81548152906001019060200180831161134957829003601f168201915b5050505050815260200160018201805461137f906139c7565b80601f01602080910402602001604051908101604052809291908181526020018280546113ab906139c7565b80156113f85780601f106113cd576101008083540402835291602001916113f8565b820191906000526020600020905b8154815290600101906020018083116113db57829003601f168201915b50505050508152602001600282018054611411906139c7565b80601f016020809104026020016040519081016040528092919081815260200182805461143d906139c7565b801561148a5780601f1061145f5761010080835404028352916020019161148a565b820191906000526020600020905b81548152906001019060200180831161146d57829003601f168201915b505050505081526020016003820180546114a3906139c7565b80601f01602080910402602001604051908101604052809291908181526020018280546114cf906139c7565b801561151c5780601f106114f15761010080835404028352916020019161151c565b820191906000526020600020905b8154815290600101906020018083116114ff57829003601f168201915b505050505081525050815260200190600101906112ba565b50505050905090565b61154633610912565b8061159c575060008054906101000a900473ffffffffffffffffffffffffffffffffffffffff1673ffffffffffffffffffffffffffffffffffffffff163373ffffffffffffffffffffffffffffffffffffffff16145b6115db576040517f08c379a00000000000000000000000000000000000000000000000000000000081526004016115d290613a44565b60405180910390fd5b856000811180156115ed575060075481105b61162c576040517f08c379a000000000000000000000000000000000000000000000000000000000815260040161162390613949565b60405180910390fd5b8460066000898152602001908152602001600020878154811061165257611651613969565b5b9060005260206000209060040201600001908161166f9190613c10565b508360066000898152602001908152602001600020878154811061169657611695613969565b5b906000526020600020906004020160010190816116b39190613c10565b50826006600089815260200190815260200160002087815481106116da576116d9613969565b5b906000526020600020906004020160020190816116f79190613c10565b508160066000898152602001908152602001600020878154811061171e5761171d613969565b5b9060005260206000209060040201600301908161173b9190613c10565b5050505050505050565b60008054906101000a900473ffffffffffffffffffffffffffffffffffffffff1681565b60075481565b61177833610912565b806117ce575060008054906101000a900473ffffffffffffffffffffffffffffffffffffffff1673ffffffffffffffffffffffffffffffffffffffff163373ffffffffffffffffffffffffffffffffffffffff16145b61180d576040517f08c379a000000000000000000000000000000000000000000000000000000000815260040161180490613a44565b60405180910390fd5b8460008111801561181f575060075481105b61185e576040517f08c379a000000000000000000000000000000000000000000000000000000000815260040161185590613949565b60405180910390fd5b8360056000888152602001908152602001600020868154811061188457611883613969565b5b906000526020600020906003020160000190816118a19190613c10565b50826005600088815260200190815260200160002086815481106118c8576118c7613969565b5b906000526020600020906003020160010190816118e59190613c10565b508160056000888152602001908152602001600020868154811061190c5761190b613969565b5b906000526020600020906003020160020190816119299190613c10565b50505050505050565b606081600081118015611946575060075481105b611985576040517f08c379a000000000000000000000000000000000000000000000000000000000815260040161197c90613949565b60405180910390fd5b60056000848152602001908152602001600020805480602002602001604051908101604052809291908181526020016000905b82821015611ba057838290600052602060002090600302016040518060600160405290816000820180546119eb906139c7565b80601f0160208091040260200160405190810160405280929190818152602001828054611a17906139c7565b8015611a645780601f10611a3957610100808354040283529160200191611a64565b820191906000526020600020905b815481529060010190602001808311611a4757829003601f168201915b50505050508152602001600182018054611a7d906139c7565b80601f0160208091040260200160405190810160405280929190818152602001828054611aa9906139c7565b8015611af65780601f10611acb57610100808354040283529160200191611af6565b820191906000526020600020905b815481529060010190602001808311611ad957829003601f168201915b50505050508152602001600282018054611b0f906139c7565b80601f0160208091040260200160405190810160405280929190818152602001828054611b3b906139c7565b8015611b885780601f10611b5d57610100808354040283529160200191611b88565b820191906000526020600020905b815481529060010190602001808311611b6b57829003601f168201915b505050505081525050815260200190600101906119b8565b50505050915050919050565b60066020528160005260406000208181548110611bc857600080fd5b906000526020600020906004020160009150915050806000018054611bec906139c7565b80601f0160208091040260200160405190810160405280929190818152602001828054611c18906139c7565b8015611c655780601f10611c3a57610100808354040283529160200191611c65565b820191906000526020600020905b815481529060010190602001808311611c4857829003601f168201915b505050505090806001018054611c7a906139c7565b80601f0160208091040260200160405190810160405280929190818152602001828054611ca6906139c7565b8015611cf35780601f10611cc857610100808354040283529160200191611cf3565b820191906000526020600020905b815481529060010190602001808311611cd657829003601f168201915b505050505090806002018054611d08906139c7565b80601f0160208091040260200160405190810160405280929190818152602001828054611d34906139c7565b8015611d815780601f10611d5657610100808354040283529160200191611d81565b820191906000526020600020905b815481529060010190602001808311611d6457829003601f168201915b505050505090806003018054611d96906139c7565b80601f0160208091040260200160405190810160405280929190818152602001828054611dc2906139c7565b8015611e0f5780601f10611de457610100808354040283529160200191611e0f565b820191906000526020600020905b815481529060010190602001808311611df257829003601f168201915b5050505050905084565b60038181548110611e2957600080fd5b9060005260206000209060040201600091509050806000018054611e4c906139c7565b80601f0160208091040260200160405190810160405280929190818152602001828054611e78906139c7565b8015611ec55780601f10611e9a57610100808354040283529160200191611ec5565b820191906000526020600020905b815481529060010190602001808311611ea857829003601f168201915b505050505090806001018054611eda906139c7565b80601f0160208091040260200160405190810160405280929190818152602001828054611f06906139c7565b8015611f535780601f10611f2857610100808354040283529160200191611f53565b820191906000526020600020905b815481529060010190602001808311611f3657829003601f168201915b505050505090806002018054611f68906139c7565b80601f0160208091040260200160405190810160405280929190818152602001828054611f94906139c7565b8015611fe15780601f10611fb657610100808354040283529160200191611fe1565b820191906000526020600020905b815481529060010190602001808311611fc457829003601f168201915b505050505090806003018054611ff6906139c7565b80601f0160208091040260200160405190810160405280929190818152602001828054612022906139c7565b801561206f5780601f106120445761010080835404028352916020019161206f565b820191906000526020600020905b81548152906001019060200180831161205257829003601f168201915b5050505050905084565b61208233610912565b806120d8575060008054906101000a900473ffffffffffffffffffffffffffffffffffffffff1673ffffffffffffffffffffffffffffffffffffffff163373ffffffffffffffffffffffffffffffffffffffff16145b612117576040517f08c379a000000000000000000000000000000000000000000000000000000000815260040161210e90613a44565b60405180910390fd5b84600081118015612129575060075481105b612168576040517f08c379a000000000000000000000000000000000000000000000000000000000815260040161215f90613949565b60405180910390fd5b846003878154811061217d5761217c613969565b5b9060005260206000209060040201600001908161219a9190613c10565b5083600387815481106121b0576121af613969565b5b906000526020600020906004020160010190816121cd9190613c10565b5082600387815481106121e3576121e2613969565b5b906000526020600020906004020160020190816122009190613c10565b50816003878154811061221657612215613969565b5b906000526020600020906004020160030190816122339190613c10565b50505050505050565b6001818154811061224c57600080fd5b906000526020600020016000915054906101000a900473ffffffffffffffffffffffffffffffffffffffff1681565b60608160008111801561228f575060075481105b6122ce576040517f08c379a00000000000000000000000000000000000000000000000000000000081526004016122c590613949565b60405180910390fd5b60066000848152602001908152602001600020805480602002602001604051908101604052809291908181526020016000905b8282101561257b5783829060005260206000209060040201604051806080016040529081600082018054612334906139c7565b80601f0160208091040260200160405190810160405280929190818152602001828054612360906139c7565b80156123ad5780601f10612382576101008083540402835291602001916123ad565b820191906000526020600020905b81548152906001019060200180831161239057829003601f168201915b505050505081526020016001820180546123c6906139c7565b80601f01602080910402602001604051908101604052809291908181526020018280546123f2906139c7565b801561243f5780601f106124145761010080835404028352916020019161243f565b820191906000526020600020905b81548152906001019060200180831161242257829003601f168201915b50505050508152602001600282018054612458906139c7565b80601f0160208091040260200160405190810160405280929190818152602001828054612484906139c7565b80156124d15780601f106124a6576101008083540402835291602001916124d1565b820191906000526020600020905b8154815290600101906020018083116124b457829003601f168201915b505050505081526020016003820180546124ea906139c7565b80601f0160208091040260200160405190810160405280929190818152602001828054612516906139c7565b80156125635780601f1061253857610100808354040283529160200191612563565b820191906000526020600020905b81548152906001019060200180831161254657829003601f168201915b50505050508152505081526020019060010190612301565b50505050915050919050565b6004818154811061259757600080fd5b90600052602060002090600402016000915090508060000180546125ba906139c7565b80601f01602080910402602001604051908101604052809291908181526020018280546125e6906139c7565b80156126335780601f1061260857610100808354040283529160200191612633565b820191906000526020600020905b81548152906001019060200180831161261657829003601f168201915b505050505090806001018054612648906139c7565b80601f0160208091040260200160405190810160405280929190818152602001828054612674906139c7565b80156126c15780601f10612696576101008083540402835291602001916126c1565b820191906000526020600020905b8154815290600101906020018083116126a457829003601f168201915b5050505050908060020180546126d6906139c7565b80601f0160208091040260200160405190810160405280929190818152602001828054612702906139c7565b801561274f5780601f106127245761010080835404028352916020019161274f565b820191906000526020600020905b81548152906001019060200180831161273257829003601f168201915b505050505090806003018054612764906139c7565b80601f0160208091040260200160405190810160405280929190818152602001828054612790906139c7565b80156127dd5780601f106127b2576101008083540402835291602001916127dd565b820191906000526020600020905b8154815290600101906020018083116127c057829003601f168201915b5050505050905084565b6127f033610912565b80612846575060008054906101000a900473ffffffffffffffffffffffffffffffffffffffff1673ffffffffffffffffffffffffffffffffffffffff163373ffffffffffffffffffffffffffffffffffffffff16145b612885576040517f08c379a000000000000000000000000000000000000000000000000000000000815260040161287c90613a44565b60405180910390fd5b81600081118015612897575060075481105b6128d6576040517f08c379a00000000000000000000000000000000000000000000000000000000081526004016128cd90613949565b60405180910390fd5b6005600084815260200190815260200160002082815481106128fb576128fa613969565b5b90600052602060002090600302016000808201600061291a9190612b3b565b60018201600061292a9190612b3b565b60028201600061293a9190612b3b565b5050505050565b6002818154811061295157600080fd5b9060005260206000209060030201600091509050806000018054612974906139c7565b80601f01602080910402602001604051908101604052809291908181526020018280546129a0906139c7565b80156129ed5780601f106129c2576101008083540402835291602001916129ed565b820191906000526020600020905b8154815290600101906020018083116129d057829003601f168201915b505050505090806001018054612a02906139c7565b80601f0160208091040260200160405190810160405280929190818152602001828054612a2e906139c7565b8015612a7b5780601f10612a5057610100808354040283529160200191612a7b565b820191906000526020600020905b815481529060010190602001808311612a5e57829003601f168201915b505050505090806002018054612a90906139c7565b80601f0160208091040260200160405190810160405280929190818152602001828054612abc906139c7565b8015612b095780601f10612ade57610100808354040283529160200191612b09565b820191906000526020600020905b815481529060010190602001808311612aec57829003601f168201915b5050505050905083565b6040518060800160405280606081526020016060815260200160608152602001606081525090565b508054612b47906139c7565b6000825580601f10612b595750612b78565b601f016020900490600052602060002090810190612b779190612b7b565b5b50565b5b80821115612b94576000816000905550600101612b7c565b5090565b6000604051905090565b600080fd5b600080fd5b6000819050919050565b612bbf81612bac565b8114612bca57600080fd5b50565b600081359050612bdc81612bb6565b92915050565b600060208284031215612bf857612bf7612ba2565b5b6000612c0684828501612bcd565b91505092915050565b600081519050919050565b600082825260208201905092915050565b60005b83811015612c49578082015181840152602081019050612c2e565b60008484015250505050565b6000601f19601f8301169050919050565b6000612c7182612c0f565b612c7b8185612c1a565b9350612c8b818560208601612c2b565b612c9481612c55565b840191505092915050565b60006080830160008301518482036000860152612cbc8282612c66565b91505060208301518482036020860152612cd68282612c66565b91505060408301518482036040860152612cf08282612c66565b91505060608301518482036060860152612d0a8282612c66565b9150508091505092915050565b60006020820190508181036000830152612d318184612c9f565b905092915050565b600080fd5b600080fd5b7f4e487b7100000000000000000000000000000000000000000000000000000000600052604160045260246000fd5b612d7b82612c55565b810181811067ffffffffffffffff82111715612d9a57612d99612d43565b5b80604052505050565b6000612dad612b98565b9050612db98282612d72565b919050565b600067ffffffffffffffff821115612dd957612dd8612d43565b5b612de282612c55565b9050602081019050919050565b82818337600083830152505050565b6000612e11612e0c84612dbe565b612da3565b905082815260208101848484011115612e2d57612e2c612d3e565b5b612e38848285612def565b509392505050565b600082601f830112612e5557612e54612d39565b5b8135612e65848260208601612dfe565b91505092915050565b60008060008060808587031215612e8857612e87612ba2565b5b600085013567ffffffffffffffff811115612ea657612ea5612ba7565b5b612eb287828801612e40565b945050602085013567ffffffffffffffff811115612ed357612ed2612ba7565b5b612edf87828801612e40565b935050604085013567ffffffffffffffff811115612f0057612eff612ba7565b5b612f0c87828801612e40565b925050606085013567ffffffffffffffff811115612f2d57612f2c612ba7565b5b612f3987828801612e40565b91505092959194509250565b612f4e81612bac565b82525050565b6000602082019050612f696000830184612f45565b92915050565b600073ffffffffffffffffffffffffffffffffffffffff82169050919050565b6000612f9a82612f6f565b9050919050565b612faa81612f8f565b8114612fb557600080fd5b50565b600081359050612fc781612fa1565b92915050565b600060208284031215612fe357612fe2612ba2565b5b6000612ff184828501612fb8565b91505092915050565b60008115159050919050565b61300f81612ffa565b82525050565b600060208201905061302a6000830184613006565b92915050565b6000806040838503121561304757613046612ba2565b5b600061305585828601612bcd565b925050602061306685828601612bcd565b9150509250929050565b600082825260208201905092915050565b600061308c82612c0f565b6130968185613070565b93506130a6818560208601612c2b565b6130af81612c55565b840191505092915050565b600060608201905081810360008301526130d48186613081565b905081810360208301526130e88185613081565b905081810360408301526130fc8184613081565b9050949350505050565b600080600080600060a0868803121561312257613121612ba2565b5b600061313088828901612bcd565b955050602086013567ffffffffffffffff81111561315157613150612ba7565b5b61315d88828901612e40565b945050604086013567ffffffffffffffff81111561317e5761317d612ba7565b5b61318a88828901612e40565b935050606086013567ffffffffffffffff8111156131ab576131aa612ba7565b5b6131b788828901612e40565b925050608086013567ffffffffffffffff8111156131d8576131d7612ba7565b5b6131e488828901612e40565b9150509295509295909350565b6000806000806080858703121561320b5761320a612ba2565b5b600061321987828801612bcd565b945050602085013567ffffffffffffffff81111561323a57613239612ba7565b5b61324687828801612e40565b935050604085013567ffffffffffffffff81111561326757613266612ba7565b5b61327387828801612e40565b925050606085013567ffffffffffffffff81111561329457613293612ba7565b5b6132a087828801612e40565b91505092959194509250565b600081519050919050565b600082825260208201905092915050565b6000819050602082019050919050565b600060808301600083015184820360008601526132f58282612c66565b9150506020830151848203602086015261330f8282612c66565b915050604083015184820360408601526133298282612c66565b915050606083015184820360608601526133438282612c66565b9150508091505092915050565b600061335c83836132d8565b905092915050565b6000602082019050919050565b600061337c826132ac565b61338681856132b7565b935083602082028501613398856132c8565b8060005b858110156133d457848403895281516133b58582613350565b94506133c083613364565b925060208a0199505060018101905061339c565b50829750879550505050505092915050565b600060208201905081810360008301526134008184613371565b905092915050565b60008060008060008060c0878903121561342557613424612ba2565b5b600061343389828a01612bcd565b965050602061344489828a01612bcd565b955050604087013567ffffffffffffffff81111561346557613464612ba7565b5b61347189828a01612e40565b945050606087013567ffffffffffffffff81111561349257613491612ba7565b5b61349e89828a01612e40565b935050608087013567ffffffffffffffff8111156134bf576134be612ba7565b5b6134cb89828a01612e40565b92505060a087013567ffffffffffffffff8111156134ec576134eb612ba7565b5b6134f889828a01612e40565b9150509295509295509295565b61350e81612f8f565b82525050565b60006020820190506135296000830184613505565b92915050565b600080600080600060a0868803121561354b5761354a612ba2565b5b600061355988828901612bcd565b955050602061356a88828901612bcd565b945050604086013567ffffffffffffffff81111561358b5761358a612ba7565b5b61359788828901612e40565b935050606086013567ffffffffffffffff8111156135b8576135b7612ba7565b5b6135c488828901612e40565b925050608086013567ffffffffffffffff8111156135e5576135e4612ba7565b5b6135f188828901612e40565b9150509295509295909350565b600081519050919050565b600082825260208201905092915050565b6000819050602082019050919050565b600060608301600083015184820360008601526136478282612c66565b915050602083015184820360208601526136618282612c66565b9150506040830151848203604086015261367b8282612c66565b9150508091505092915050565b6000613694838361362a565b905092915050565b6000602082019050919050565b60006136b4826135fe565b6136be8185613609565b9350836020820285016136d08561361a565b8060005b8581101561370c57848403895281516136ed8582613688565b94506136f88361369c565b925060208a019950506001810190506136d4565b50829750879550505050505092915050565b6000602082019050818103600083015261373881846136a9565b905092915050565b6000608082019050818103600083015261375a8187613081565b9050818103602083015261376e8186613081565b905081810360408301526137828185613081565b905081810360608301526137968184613081565b905095945050505050565b600081519050919050565b600082825260208201905092915050565b6000819050602082019050919050565b600060808301600083015184820360008601526137ea8282612c66565b915050602083015184820360208601526138048282612c66565b9150506040830151848203604086015261381e8282612c66565b915050606083015184820360608601526138388282612c66565b9150508091505092915050565b600061385183836137cd565b905092915050565b6000602082019050919050565b6000613871826137a1565b61387b81856137ac565b93508360208202850161388d856137bd565b8060005b858110156138c957848403895281516138aa8582613845565b94506138b583613859565b925060208a01995050600181019050613891565b50829750879550505050505092915050565b600060208201905081810360008301526138f58184613866565b905092915050565b7f437573746f6d657220646f6573206e6f742065786973742e0000000000000000600082015250565b6000613933601883613070565b915061393e826138fd565b602082019050919050565b6000602082019050818103600083015261396281613926565b9050919050565b7f4e487b7100000000000000000000000000000000000000000000000000000000600052603260045260246000fd5b7f4e487b7100000000000000000000000000000000000000000000000000000000600052602260045260246000fd5b600060028204905060018216806139df57607f821691505b6020821081036139f2576139f1613998565b5b50919050565b7f4f6e6c79206f776e6572206f722061646d696e20686173206163636573730000600082015250565b6000613a2e601e83613070565b9150613a39826139f8565b602082019050919050565b60006020820190508181036000830152613a5d81613a21565b9050919050565b60008190508160005260206000209050919050565b60006020601f8301049050919050565b600082821b905092915050565b600060088302613ac67fffffffffffffffffffffffffffffffffffffffffffffffffffffffffffffffff82613a89565b613ad08683613a89565b95508019841693508086168417925050509392505050565b6000819050919050565b6000613b0d613b08613b0384612bac565b613ae8565b612bac565b9050919050565b6000819050919050565b613b2783613af2565b613b3b613b3382613b14565b848454613a96565b825550505050565b600090565b613b50613b43565b613b5b818484613b1e565b505050565b5b81811015613b7f57613b74600082613b48565b600181019050613b61565b5050565b601f821115613bc457613b9581613a64565b613b9e84613a79565b81016020851015613bad578190505b613bc1613bb985613a79565b830182613b60565b50505b505050565b600082821c905092915050565b6000613be760001984600802613bc9565b1980831691505092915050565b6000613c008383613bd6565b9150826002028217905092915050565b613c1982612c0f565b67ffffffffffffffff811115613c3257613c31612d43565b5b613c3c82546139c7565b613c47828285613b83565b600060209050601f831160018114613c7a5760008415613c68578287015190505b613c728582613bf4565b865550613cda565b601f198416613c8886613a64565b60005b82811015613cb057848901518255600182019150602085019450602081019050613c8b565b86831015613ccd5784890151613cc9601f891682613bd6565b8355505b6001600288020188555050505b505050505050565b7f4e487b7100000000000000000000000000000000000000000000000000000000600052601160045260246000fd5b6000613d1c82612bac565b91507fffffffffffffffffffffffffffffffffffffffffffffffffffffffffffffffff8203613d4e57613d4d613ce2565b5b600182019050919050565b7f496e76616c696420637573746f6d65722049442e000000000000000000000000600082015250565b6000613d8f601483613070565b9150613d9a82613d59565b602082019050919050565b60006020820190508181036000830152613dbe81613d82565b9050919050565b7f4f6e6c79206f776e657220686173206163636573730000000000000000000000600082015250565b6000613dfb601583613070565b9150613e0682613dc5565b602082019050919050565b60006020820190508181036000830152613e2a81613dee565b905091905056fea264697066735822122080f0fbfbea59f4a66f06384362405c27207ab745a9e265f60e667348c16322c964736f6c634300081b0033",
  "linkReferences": {},
  "deployedLinkReferences": {}
}