{
  "_format": "hh-sol-artifact-1",
  "contractName": "AssetManager",
  "sourceName": "contracts/AssetManager.sol",
  "abi": [
    {
      "inputs": [],
      "stateMutability": "nonpayable",
      "type": "constructor"
    },
    {
      "stateMutability": "payable",
      "type": "fallback"
    },
    {
      "inputs": [
        {
          "internalType": "address",
          "name": "_admin",
          "type": "address"
        }
      ],
      "name": "addAdmin",
      "outputs": [],
      "stateMutability": "nonpayable",
      "type": "function"
    },
    {
      "inputs": [
        {
          "internalType": "string",
          "name": "name",
          "type": "string"
        },
        {
          "internalType": "string",
          "name": "ic",
          "type": "string"
        },
        {
          "internalType": "string",
          "name": "contactNo",
          "type": "string"
        },
        {
          "internalType": "string",
          "name": "Address",
          "type": "string"
        }
      ],
      "name": "addCustomerData",
      "outputs": [
        {
          "internalType": "uint256",
          "name": "",
          "type": "uint256"
        }
      ],
      "stateMutability": "nonpayable",
      "type": "function"
    },
    {
      "inputs": [
        {
          "internalType": "uint256",
          "name": "customerId",
          "type": "uint256"
        },
        {
          "internalType": "string",
          "name": "name",
          "type": "string"
        },
        {
          "internalType": "string",
          "name": "ic",
          "type": "string"
        },
        {
          "internalType": "string",
          "name": "contactNo",
          "type": "string"
        },
        {
          "internalType": "string",
          "name": "Address",
          "type": "string"
        },
        {
          "internalType": "string",
          "name": "relationship",
          "type": "string"
        }
      ],
      "name": "addCustomerInheritor",
      "outputs": [],
      "stateMutability": "nonpayable",
      "type": "function"
    },
    {
      "inputs": [
        {
          "internalType": "uint256",
          "name": "customerId",
          "type": "uint256"
        },
        {
          "internalType": "string",
          "name": "title",
          "type": "string"
        },
        {
          "internalType": "string",
          "name": "details",
          "type": "string"
        },
        {
          "internalType": "string",
          "name": "gambar",
          "type": "string"
        }
      ],
      "name": "addCustomerProperty",
      "outputs": [],
      "stateMutability": "nonpayable",
      "type": "function"
    },
    {
      "inputs": [
        {
          "internalType": "uint256",
          "name": "",
          "type": "uint256"
        }
      ],
      "name": "admin",
      "outputs": [
        {
          "internalType": "address",
          "name": "",
          "type": "address"
        }
      ],
      "stateMutability": "view",
      "type": "function"
    },
    {
      "inputs": [],
      "name": "customerIdCounter",
      "outputs": [
        {
          "internalType": "uint256",
          "name": "",
          "type": "uint256"
        }
      ],
      "stateMutability": "view",
      "type": "function"
    },
    {
      "inputs": [
        {
          "internalType": "uint256",
          "name": "",
          "type": "uint256"
        },
        {
          "internalType": "uint256",
          "name": "",
          "type": "uint256"
        }
      ],
      "name": "customerInheritors",
      "outputs": [
        {
          "internalType": "string",
          "name": "name",
          "type": "string"
        },
        {
          "internalType": "string",
          "name": "ic",
          "type": "string"
        },
        {
          "internalType": "string",
          "name": "contactNo",
          "type": "string"
        },
        {
          "internalType": "string",
          "name": "Address",
          "type": "string"
        },
        {
          "internalType": "string",
          "name": "relationship",
          "type": "string"
        }
      ],
      "stateMutability": "view",
      "type": "function"
    },
    {
      "inputs": [
        {
          "internalType": "uint256",
          "name": "",
          "type": "uint256"
        },
        {
          "internalType": "uint256",
          "name": "",
          "type": "uint256"
        }
      ],
      "name": "customerProperties",
      "outputs": [
        {
          "internalType": "string",
          "name": "title",
          "type": "string"
        },
        {
          "internalType": "string",
          "name": "details",
          "type": "string"
        },
        {
          "internalType": "string",
          "name": "gambar",
          "type": "string"
        }
      ],
      "stateMutability": "view",
      "type": "function"
    },
    {
      "inputs": [
        {
          "internalType": "uint256",
          "name": "",
          "type": "uint256"
        }
      ],
      "name": "customers",
      "outputs": [
        {
          "internalType": "string",
          "name": "name",
          "type": "string"
        },
        {
          "internalType": "string",
          "name": "ic",
          "type": "string"
        },
        {
          "internalType": "string",
          "name": "contactNo",
          "type": "string"
        },
        {
          "internalType": "string",
          "name": "Address",
          "type": "string"
        }
      ],
      "stateMutability": "view",
      "type": "function"
    },
    {
      "inputs": [
        {
          "internalType": "uint256",
          "name": "customerId",
          "type": "uint256"
        }
      ],
      "name": "deleteCustomerData",
      "outputs": [],
      "stateMutability": "nonpayable",
      "type": "function"
    },
    {
      "inputs": [
        {
          "internalType": "uint256",
          "name": "customerId",
          "type": "uint256"
        },
        {
          "internalType": "uint256",
          "name": "inheritorIndex",
          "type": "uint256"
        }
      ],
      "name": "deleteCustomerInheritor",
      "outputs": [],
      "stateMutability": "nonpayable",
      "type": "function"
    },
    {
      "inputs": [
        {
          "internalType": "uint256",
          "name": "customerId",
          "type": "uint256"
        },
        {
          "internalType": "uint256",
          "name": "propertyIndex",
          "type": "uint256"
        }
      ],
      "name": "deleteCustomerProperty",
      "outputs": [],
      "stateMutability": "nonpayable",
      "type": "function"
    },
    {
      "inputs": [],
      "name": "getAllCustomers",
      "outputs": [
        {
          "components": [
            {
              "internalType": "string",
              "name": "name",
              "type": "string"
            },
            {
              "internalType": "string",
              "name": "ic",
              "type": "string"
            },
            {
              "internalType": "string",
              "name": "contactNo",
              "type": "string"
            },
            {
              "internalType": "string",
              "name": "Address",
              "type": "string"
            }
          ],
          "internalType": "struct AssetManager.CustomerData[]",
          "name": "",
          "type": "tuple[]"
        }
      ],
      "stateMutability": "view",
      "type": "function"
    },
    {
      "inputs": [
        {
          "internalType": "uint256",
          "name": "customerId",
          "type": "uint256"
        }
      ],
      "name": "getCustomerData",
      "outputs": [
        {
          "components": [
            {
              "internalType": "string",
              "name": "name",
              "type": "string"
            },
            {
              "internalType": "string",
              "name": "ic",
              "type": "string"
            },
            {
              "internalType": "string",
              "name": "contactNo",
              "type": "string"
            },
            {
              "internalType": "string",
              "name": "Address",
              "type": "string"
            }
          ],
          "internalType": "struct AssetManager.CustomerData",
          "name": "",
          "type": "tuple"
        }
      ],
      "stateMutability": "view",
      "type": "function"
    },
    {
      "inputs": [
        {
          "internalType": "uint256",
          "name": "customerId",
          "type": "uint256"
        }
      ],
      "name": "getCustomerInheritors",
      "outputs": [
        {
          "components": [
            {
              "internalType": "string",
              "name": "name",
              "type": "string"
            },
            {
              "internalType": "string",
              "name": "ic",
              "type": "string"
            },
            {
              "internalType": "string",
              "name": "contactNo",
              "type": "string"
            },
            {
              "internalType": "string",
              "name": "Address",
              "type": "string"
            },
            {
              "internalType": "string",
              "name": "relationship",
              "type": "string"
            }
          ],
          "internalType": "struct AssetManager.Inheritor[]",
          "name": "",
          "type": "tuple[]"
        }
      ],
      "stateMutability": "view",
      "type": "function"
    },
    {
      "inputs": [
        {
          "internalType": "uint256",
          "name": "customerId",
          "type": "uint256"
        }
      ],
      "name": "getCustomerProperties",
      "outputs": [
        {
          "components": [
            {
              "internalType": "string",
              "name": "title",
              "type": "string"
            },
            {
              "internalType": "string",
              "name": "details",
              "type": "string"
            },
            {
              "internalType": "string",
              "name": "gambar",
              "type": "string"
            }
          ],
          "internalType": "struct AssetManager.Properties[]",
          "name": "",
          "type": "tuple[]"
        }
      ],
      "stateMutability": "view",
      "type": "function"
    },
    {
      "inputs": [
        {
          "internalType": "uint256",
          "name": "",
          "type": "uint256"
        }
      ],
      "name": "inheritors",
      "outputs": [
        {
          "internalType": "string",
          "name": "name",
          "type": "string"
        },
        {
          "internalType": "string",
          "name": "ic",
          "type": "string"
        },
        {
          "internalType": "string",
          "name": "contactNo",
          "type": "string"
        },
        {
          "internalType": "string",
          "name": "Address",
          "type": "string"
        },
        {
          "internalType": "string",
          "name": "relationship",
          "type": "string"
        }
      ],
      "stateMutability": "view",
      "type": "function"
    },
    {
      "inputs": [
        {
          "internalType": "address",
          "name": "_addr",
          "type": "address"
        }
      ],
      "name": "isAdmin",
      "outputs": [
        {
          "internalType": "bool",
          "name": "",
          "type": "bool"
        }
      ],
      "stateMutability": "view",
      "type": "function"
    },
    {
      "inputs": [],
      "name": "owner",
      "outputs": [
        {
          "internalType": "address",
          "name": "",
          "type": "address"
        }
      ],
      "stateMutability": "view",
      "type": "function"
    },
    {
      "inputs": [
        {
          "internalType": "uint256",
          "name": "",
          "type": "uint256"
        }
      ],
      "name": "properties",
      "outputs": [
        {
          "internalType": "string",
          "name": "title",
          "type": "string"
        },
        {
          "internalType": "string",
          "name": "details",
          "type": "string"
        },
        {
          "internalType": "string",
          "name": "gambar",
          "type": "string"
        }
      ],
      "stateMutability": "view",
      "type": "function"
    },
    {
      "inputs": [
        {
          "internalType": "uint256",
          "name": "customerId",
          "type": "uint256"
        },
        {
          "internalType": "string",
          "name": "name",
          "type": "string"
        },
        {
          "internalType": "string",
          "name": "ic",
          "type": "string"
        },
        {
          "internalType": "string",
          "name": "contactNo",
          "type": "string"
        },
        {
          "internalType": "string",
          "name": "Address",
          "type": "string"
        }
      ],
      "name": "updateCustomerData",
      "outputs": [],
      "stateMutability": "nonpayable",
      "type": "function"
    },
    {
      "inputs": [
        {
          "internalType": "uint256",
          "name": "customerId",
          "type": "uint256"
        },
        {
          "internalType": "uint256",
          "name": "inheritorIndex",
          "type": "uint256"
        },
        {
          "internalType": "string",
          "name": "name",
          "type": "string"
        },
        {
          "internalType": "string",
          "name": "ic",
          "type": "string"
        },
        {
          "internalType": "string",
          "name": "contactNo",
          "type": "string"
        },
        {
          "internalType": "string",
          "name": "Address",
          "type": "string"
        }
      ],
      "name": "updateCustomerInheritor",
      "outputs": [],
      "stateMutability": "nonpayable",
      "type": "function"
    },
    {
      "inputs": [
        {
          "internalType": "uint256",
          "name": "customerId",
          "type": "uint256"
        },
        {
          "internalType": "uint256",
          "name": "propertyIndex",
          "type": "uint256"
        },
        {
          "internalType": "string",
          "name": "title",
          "type": "string"
        },
        {
          "internalType": "string",
          "name": "details",
          "type": "string"
        },
        {
          "internalType": "string",
          "name": "gambar",
          "type": "string"
        }
      ],
      "name": "updateCustomerProperty",
      "outputs": [],
      "stateMutability": "nonpayable",
      "type": "function"
    },
    {
      "stateMutability": "payable",
      "type": "receive"
    }
  ],
  "bytecode": "0x6080604052348015600f57600080fd5b50336000806101000a81548173ffffffffffffffffffffffffffffffffffffffff021916908373ffffffffffffffffffffffffffffffffffffffff1602179055506000600781905550614431806100676000396000f3fe6080604052600436106101445760003560e01c80638da5cb5b116100b6578063d13e7f391161006f578063d13e7f391461049b578063d599a1c6146104c4578063e1c900a714610501578063f2a314fa1461053e578063f3ab005d1461057f578063f7b10808146105a857610145565b80638da5cb5b1461035e578063a8f8ba7d14610389578063ad5f7cc5146103b4578063aed5656d146103dd578063bac43aa01461041a578063c0abda2a1461045b57610145565b8063514672f911610108578063514672f914610266578063522694f91461028f5780635a14d165146102b857806370480275146102e15780637da67ba81461030a57806387eabdd71461033557610145565b80630b659ea1146101475780632019523a1461018457806324d7806c146101c157806328c15acd146101fe57806341114dce1461022757610145565b5b005b34801561015357600080fd5b5061016e6004803603810190610169919061306f565b6105e7565b60405161017b91906131a4565b60405180910390f35b34801561019057600080fd5b506101ab60048036038101906101a691906132fb565b6108e1565b6040516101b891906133e1565b60405180910390f35b3480156101cd57600080fd5b506101e860048036038101906101e3919061345a565b610a58565b6040516101f591906134a2565b60405180910390f35b34801561020a57600080fd5b50610225600480360381019061022091906134bd565b610b00565b005b34801561023357600080fd5b5061024e600480360381019061024991906134bd565b610c9e565b60405161025d93929190613547565b60405180910390f35b34801561027257600080fd5b5061028d60048036038101906102889190613593565b610e7d565b005b34801561029b57600080fd5b506102b660048036038101906102b1919061306f565b611072565b005b3480156102c457600080fd5b506102df60048036038101906102da91906136ac565b6111ee565b005b3480156102ed57600080fd5b506103086004803603810190610303919061345a565b6113a9565b005b34801561031657600080fd5b5061031f61149d565b60405161032c91906138a1565b60405180910390f35b34801561034157600080fd5b5061035c600480360381019061035791906138c3565b611744565b005b34801561036a57600080fd5b50610373611970565b60405161038091906139cf565b60405180910390f35b34801561039557600080fd5b5061039e611994565b6040516103ab91906133e1565b60405180910390f35b3480156103c057600080fd5b506103db60048036038101906103d691906139ea565b61199a565b005b3480156103e957600080fd5b5061040460048036038101906103ff919061306f565b611b81565b6040516104119190613bd9565b60405180910390f35b34801561042657600080fd5b50610441600480360381019061043c91906134bd565b611e1f565b604051610452959493929190613bfb565b60405180910390f35b34801561046757600080fd5b50610482600480360381019061047d919061306f565b61211a565b6040516104929493929190613c71565b60405180910390f35b3480156104a757600080fd5b506104c260048036038101906104bd9190613cd2565b61237a565b005b3480156104d057600080fd5b506104eb60048036038101906104e6919061306f565b612561565b6040516104f891906139cf565b60405180910390f35b34801561050d57600080fd5b506105286004803603810190610523919061306f565b6125a0565b6040516105359190613f11565b60405180910390f35b34801561054a57600080fd5b506105656004803603810190610560919061306f565b612962565b604051610576959493929190613bfb565b60405180910390f35b34801561058b57600080fd5b506105a660048036038101906105a191906134bd565b612c50565b005b3480156105b457600080fd5b506105cf60048036038101906105ca919061306f565b612dce565b6040516105de93929190613547565b60405180910390f35b6105ef612fa0565b8160006003828154811061060657610605613f33565b5b9060005260206000209060040201600001805461062290613f91565b905003610664576040517f08c379a000000000000000000000000000000000000000000000000000000000815260040161065b9061400e565b60405180910390fd5b6003838154811061067857610677613f33565b5b90600052602060002090600402016040518060800160405290816000820180546106a190613f91565b80601f01602080910402602001604051908101604052809291908181526020018280546106cd90613f91565b801561071a5780601f106106ef5761010080835404028352916020019161071a565b820191906000526020600020905b8154815290600101906020018083116106fd57829003601f168201915b5050505050815260200160018201805461073390613f91565b80601f016020809104026020016040519081016040528092919081815260200182805461075f90613f91565b80156107ac5780601f10610781576101008083540402835291602001916107ac565b820191906000526020600020905b81548152906001019060200180831161078f57829003601f168201915b505050505081526020016002820180546107c590613f91565b80601f01602080910402602001604051908101604052809291908181526020018280546107f190613f91565b801561083e5780601f106108135761010080835404028352916020019161083e565b820191906000526020600020905b81548152906001019060200180831161082157829003601f168201915b5050505050815260200160038201805461085790613f91565b80601f016020809104026020016040519081016040528092919081815260200182805461088390613f91565b80156108d05780601f106108a5576101008083540402835291602001916108d0565b820191906000526020600020905b8154815290600101906020018083116108b357829003601f168201915b505050505081525050915050919050565b60006108ec33610a58565b80610942575060008054906101000a900473ffffffffffffffffffffffffffffffffffffffff1673ffffffffffffffffffffffffffffffffffffffff163373ffffffffffffffffffffffffffffffffffffffff16145b610981576040517f08c379a00000000000000000000000000000000000000000000000000000000081526004016109789061407a565b60405180910390fd5b60006040518060800160405280878152602001868152602001858152602001848152509050600381908060018154018082558091505060019003906000526020600020906004020160009091909190915060008201518160000190816109e79190614246565b5060208201518160010190816109fd9190614246565b506040820151816002019081610a139190614246565b506060820151816003019081610a299190614246565b5050506000600754905060076000815480929190610a4690614347565b91905055508092505050949350505050565b600080600090505b600180549050811015610af5578273ffffffffffffffffffffffffffffffffffffffff1660018281548110610a9857610a97613f33565b5b9060005260206000200160009054906101000a900473ffffffffffffffffffffffffffffffffffffffff1673ffffffffffffffffffffffffffffffffffffffff1603610ae8576001915050610afb565b8080600101915050610a60565b50600090505b919050565b610b0933610a58565b80610b5f575060008054906101000a900473ffffffffffffffffffffffffffffffffffffffff1673ffffffffffffffffffffffffffffffffffffffff163373ffffffffffffffffffffffffffffffffffffffff16145b610b9e576040517f08c379a0000000000000000000000000000000000000000000000000000000008152600401610b959061407a565b60405180910390fd5b81600060038281548110610bb557610bb4613f33565b5b90600052602060002090600402016000018054610bd190613f91565b905003610c13576040517f08c379a0000000000000000000000000000000000000000000000000000000008152600401610c0a9061400e565b60405180910390fd5b600660008481526020019081526020016000208281548110610c3857610c37613f33565b5b906000526020600020906005020160008082016000610c579190612fc8565b600182016000610c679190612fc8565b600282016000610c779190612fc8565b600382016000610c879190612fc8565b600482016000610c979190612fc8565b5050505050565b60056020528160005260406000208181548110610cba57600080fd5b906000526020600020906003020160009150915050806000018054610cde90613f91565b80601f0160208091040260200160405190810160405280929190818152602001828054610d0a90613f91565b8015610d575780601f10610d2c57610100808354040283529160200191610d57565b820191906000526020600020905b815481529060010190602001808311610d3a57829003601f168201915b505050505090806001018054610d6c90613f91565b80601f0160208091040260200160405190810160405280929190818152602001828054610d9890613f91565b8015610de55780601f10610dba57610100808354040283529160200191610de5565b820191906000526020600020905b815481529060010190602001808311610dc857829003601f168201915b505050505090806002018054610dfa90613f91565b80601f0160208091040260200160405190810160405280929190818152602001828054610e2690613f91565b8015610e735780601f10610e4857610100808354040283529160200191610e73565b820191906000526020600020905b815481529060010190602001808311610e5657829003601f168201915b5050505050905083565b610e8633610a58565b80610edc575060008054906101000a900473ffffffffffffffffffffffffffffffffffffffff1673ffffffffffffffffffffffffffffffffffffffff163373ffffffffffffffffffffffffffffffffffffffff16145b610f1b576040517f08c379a0000000000000000000000000000000000000000000000000000000008152600401610f129061407a565b60405180910390fd5b85600060038281548110610f3257610f31613f33565b5b90600052602060002090600402016000018054610f4e90613f91565b905003610f90576040517f08c379a0000000000000000000000000000000000000000000000000000000008152600401610f879061400e565b60405180910390fd5b60006040518060a0016040528088815260200187815260200186815260200185815260200184815250905060066000898152602001908152602001600020819080600181540180825580915050600190039060005260206000209060050201600090919091909150600082015181600001908161100d9190614246565b5060208201518160010190816110239190614246565b5060408201518160020190816110399190614246565b50606082015181600301908161104f9190614246565b5060808201518160040190816110659190614246565b5050505050505050505050565b61107b33610a58565b806110d1575060008054906101000a900473ffffffffffffffffffffffffffffffffffffffff1673ffffffffffffffffffffffffffffffffffffffff163373ffffffffffffffffffffffffffffffffffffffff16145b611110576040517f08c379a00000000000000000000000000000000000000000000000000000000081526004016111079061407a565b60405180910390fd5b8060006003828154811061112757611126613f33565b5b9060005260206000209060040201600001805461114390613f91565b905003611185576040517f08c379a000000000000000000000000000000000000000000000000000000000815260040161117c9061400e565b60405180910390fd5b6003828154811061119957611198613f33565b5b9060005260206000209060040201600080820160006111b89190612fc8565b6001820160006111c89190612fc8565b6002820160006111d89190612fc8565b6003820160006111e89190612fc8565b50505050565b6111f733610a58565b8061124d575060008054906101000a900473ffffffffffffffffffffffffffffffffffffffff1673ffffffffffffffffffffffffffffffffffffffff163373ffffffffffffffffffffffffffffffffffffffff16145b61128c576040517f08c379a00000000000000000000000000000000000000000000000000000000081526004016112839061407a565b60405180910390fd5b836000600382815481106112a3576112a2613f33565b5b906000526020600020906004020160000180546112bf90613f91565b905003611301576040517f08c379a00000000000000000000000000000000000000000000000000000000081526004016112f89061400e565b60405180910390fd5b600060405180606001604052808681526020018581526020018481525090506005600087815260200190815260200160002081908060018154018082558091505060019003906000526020600020906003020160009091909190915060008201518160000190816113729190614246565b5060208201518160010190816113889190614246565b50604082015181600201908161139e9190614246565b505050505050505050565b60008054906101000a900473ffffffffffffffffffffffffffffffffffffffff1673ffffffffffffffffffffffffffffffffffffffff163373ffffffffffffffffffffffffffffffffffffffff1614611437576040517f08c379a000000000000000000000000000000000000000000000000000000000815260040161142e906143db565b60405180910390fd5b6001819080600181540180825580915050600190039060005260206000200160009091909190916101000a81548173ffffffffffffffffffffffffffffffffffffffff021916908373ffffffffffffffffffffffffffffffffffffffff16021790555050565b60606003805480602002602001604051908101604052809291908181526020016000905b8282101561173b57838290600052602060002090600402016040518060800160405290816000820180546114f490613f91565b80601f016020809104026020016040519081016040528092919081815260200182805461152090613f91565b801561156d5780601f106115425761010080835404028352916020019161156d565b820191906000526020600020905b81548152906001019060200180831161155057829003601f168201915b5050505050815260200160018201805461158690613f91565b80601f01602080910402602001604051908101604052809291908181526020018280546115b290613f91565b80156115ff5780601f106115d4576101008083540402835291602001916115ff565b820191906000526020600020905b8154815290600101906020018083116115e257829003601f168201915b5050505050815260200160028201805461161890613f91565b80601f016020809104026020016040519081016040528092919081815260200182805461164490613f91565b80156116915780601f1061166657610100808354040283529160200191611691565b820191906000526020600020905b81548152906001019060200180831161167457829003601f168201915b505050505081526020016003820180546116aa90613f91565b80601f01602080910402602001604051908101604052809291908181526020018280546116d690613f91565b80156117235780601f106116f857610100808354040283529160200191611723565b820191906000526020600020905b81548152906001019060200180831161170657829003601f168201915b505050505081525050815260200190600101906114c1565b50505050905090565b61174d33610a58565b806117a3575060008054906101000a900473ffffffffffffffffffffffffffffffffffffffff1673ffffffffffffffffffffffffffffffffffffffff163373ffffffffffffffffffffffffffffffffffffffff16145b6117e2576040517f08c379a00000000000000000000000000000000000000000000000000000000081526004016117d99061407a565b60405180910390fd5b856000600382815481106117f9576117f8613f33565b5b9060005260206000209060040201600001805461181590613f91565b905003611857576040517f08c379a000000000000000000000000000000000000000000000000000000000815260040161184e9061400e565b60405180910390fd5b8460066000898152602001908152602001600020878154811061187d5761187c613f33565b5b9060005260206000209060050201600001908161189a9190614246565b50836006600089815260200190815260200160002087815481106118c1576118c0613f33565b5b906000526020600020906005020160010190816118de9190614246565b508260066000898152602001908152602001600020878154811061190557611904613f33565b5b906000526020600020906005020160020190816119229190614246565b508160066000898152602001908152602001600020878154811061194957611948613f33565b5b906000526020600020906005020160030190816119669190614246565b5050505050505050565b60008054906101000a900473ffffffffffffffffffffffffffffffffffffffff1681565b60075481565b6119a333610a58565b806119f9575060008054906101000a900473ffffffffffffffffffffffffffffffffffffffff1673ffffffffffffffffffffffffffffffffffffffff163373ffffffffffffffffffffffffffffffffffffffff16145b611a38576040517f08c379a0000000000000000000000000000000000000000000000000000000008152600401611a2f9061407a565b60405180910390fd5b84600060038281548110611a4f57611a4e613f33565b5b90600052602060002090600402016000018054611a6b90613f91565b905003611aad576040517f08c379a0000000000000000000000000000000000000000000000000000000008152600401611aa49061400e565b60405180910390fd5b83600560008881526020019081526020016000208681548110611ad357611ad2613f33565b5b90600052602060002090600302016000019081611af09190614246565b5082600560008881526020019081526020016000208681548110611b1757611b16613f33565b5b90600052602060002090600302016001019081611b349190614246565b5081600560008881526020019081526020016000208681548110611b5b57611b5a613f33565b5b90600052602060002090600302016002019081611b789190614246565b50505050505050565b606081600060038281548110611b9a57611b99613f33565b5b90600052602060002090600402016000018054611bb690613f91565b905003611bf8576040517f08c379a0000000000000000000000000000000000000000000000000000000008152600401611bef9061400e565b60405180910390fd5b60056000848152602001908152602001600020805480602002602001604051908101604052809291908181526020016000905b82821015611e135783829060005260206000209060030201604051806060016040529081600082018054611c5e90613f91565b80601f0160208091040260200160405190810160405280929190818152602001828054611c8a90613f91565b8015611cd75780601f10611cac57610100808354040283529160200191611cd7565b820191906000526020600020905b815481529060010190602001808311611cba57829003601f168201915b50505050508152602001600182018054611cf090613f91565b80601f0160208091040260200160405190810160405280929190818152602001828054611d1c90613f91565b8015611d695780601f10611d3e57610100808354040283529160200191611d69565b820191906000526020600020905b815481529060010190602001808311611d4c57829003601f168201915b50505050508152602001600282018054611d8290613f91565b80601f0160208091040260200160405190810160405280929190818152602001828054611dae90613f91565b8015611dfb5780601f10611dd057610100808354040283529160200191611dfb565b820191906000526020600020905b815481529060010190602001808311611dde57829003601f168201915b50505050508152505081526020019060010190611c2b565b50505050915050919050565b60066020528160005260406000208181548110611e3b57600080fd5b906000526020600020906005020160009150915050806000018054611e5f90613f91565b80601f0160208091040260200160405190810160405280929190818152602001828054611e8b90613f91565b8015611ed85780601f10611ead57610100808354040283529160200191611ed8565b820191906000526020600020905b815481529060010190602001808311611ebb57829003601f168201915b505050505090806001018054611eed90613f91565b80601f0160208091040260200160405190810160405280929190818152602001828054611f1990613f91565b8015611f665780601f10611f3b57610100808354040283529160200191611f66565b820191906000526020600020905b815481529060010190602001808311611f4957829003601f168201915b505050505090806002018054611f7b90613f91565b80601f0160208091040260200160405190810160405280929190818152602001828054611fa790613f91565b8015611ff45780601f10611fc957610100808354040283529160200191611ff4565b820191906000526020600020905b815481529060010190602001808311611fd757829003601f168201915b50505050509080600301805461200990613f91565b80601f016020809104026020016040519081016040528092919081815260200182805461203590613f91565b80156120825780601f1061205757610100808354040283529160200191612082565b820191906000526020600020905b81548152906001019060200180831161206557829003601f168201915b50505050509080600401805461209790613f91565b80601f01602080910402602001604051908101604052809291908181526020018280546120c390613f91565b80156121105780601f106120e557610100808354040283529160200191612110565b820191906000526020600020905b8154815290600101906020018083116120f357829003601f168201915b5050505050905085565b6003818154811061212a57600080fd5b906000526020600020906004020160009150905080600001805461214d90613f91565b80601f016020809104026020016040519081016040528092919081815260200182805461217990613f91565b80156121c65780601f1061219b576101008083540402835291602001916121c6565b820191906000526020600020905b8154815290600101906020018083116121a957829003601f168201915b5050505050908060010180546121db90613f91565b80601f016020809104026020016040519081016040528092919081815260200182805461220790613f91565b80156122545780601f1061222957610100808354040283529160200191612254565b820191906000526020600020905b81548152906001019060200180831161223757829003601f168201915b50505050509080600201805461226990613f91565b80601f016020809104026020016040519081016040528092919081815260200182805461229590613f91565b80156122e25780601f106122b7576101008083540402835291602001916122e2565b820191906000526020600020905b8154815290600101906020018083116122c557829003601f168201915b5050505050908060030180546122f790613f91565b80601f016020809104026020016040519081016040528092919081815260200182805461232390613f91565b80156123705780601f1061234557610100808354040283529160200191612370565b820191906000526020600020905b81548152906001019060200180831161235357829003601f168201915b5050505050905084565b61238333610a58565b806123d9575060008054906101000a900473ffffffffffffffffffffffffffffffffffffffff1673ffffffffffffffffffffffffffffffffffffffff163373ffffffffffffffffffffffffffffffffffffffff16145b612418576040517f08c379a000000000000000000000000000000000000000000000000000000000815260040161240f9061407a565b60405180910390fd5b8460006003828154811061242f5761242e613f33565b5b9060005260206000209060040201600001805461244b90613f91565b90500361248d576040517f08c379a00000000000000000000000000000000000000000000000000000000081526004016124849061400e565b60405180910390fd5b84600387815481106124a2576124a1613f33565b5b906000526020600020906004020160000190816124bf9190614246565b5083600387815481106124d5576124d4613f33565b5b906000526020600020906004020160010190816124f29190614246565b50826003878154811061250857612507613f33565b5b906000526020600020906004020160020190816125259190614246565b50816003878154811061253b5761253a613f33565b5b906000526020600020906004020160030190816125589190614246565b50505050505050565b6001818154811061257157600080fd5b906000526020600020016000915054906101000a900473ffffffffffffffffffffffffffffffffffffffff1681565b6060816000600382815481106125b9576125b8613f33565b5b906000526020600020906004020160000180546125d590613f91565b905003612617576040517f08c379a000000000000000000000000000000000000000000000000000000000815260040161260e9061400e565b60405180910390fd5b60066000848152602001908152602001600020805480602002602001604051908101604052809291908181526020016000905b8282101561295657838290600052602060002090600502016040518060a001604052908160008201805461267d90613f91565b80601f01602080910402602001604051908101604052809291908181526020018280546126a990613f91565b80156126f65780601f106126cb576101008083540402835291602001916126f6565b820191906000526020600020905b8154815290600101906020018083116126d957829003601f168201915b5050505050815260200160018201805461270f90613f91565b80601f016020809104026020016040519081016040528092919081815260200182805461273b90613f91565b80156127885780601f1061275d57610100808354040283529160200191612788565b820191906000526020600020905b81548152906001019060200180831161276b57829003601f168201915b505050505081526020016002820180546127a190613f91565b80601f01602080910402602001604051908101604052809291908181526020018280546127cd90613f91565b801561281a5780601f106127ef5761010080835404028352916020019161281a565b820191906000526020600020905b8154815290600101906020018083116127fd57829003601f168201915b5050505050815260200160038201805461283390613f91565b80601f016020809104026020016040519081016040528092919081815260200182805461285f90613f91565b80156128ac5780601f10612881576101008083540402835291602001916128ac565b820191906000526020600020905b81548152906001019060200180831161288f57829003601f168201915b505050505081526020016004820180546128c590613f91565b80601f01602080910402602001604051908101604052809291908181526020018280546128f190613f91565b801561293e5780601f106129135761010080835404028352916020019161293e565b820191906000526020600020905b81548152906001019060200180831161292157829003601f168201915b5050505050815250508152602001906001019061264a565b50505050915050919050565b6004818154811061297257600080fd5b906000526020600020906005020160009150905080600001805461299590613f91565b80601f01602080910402602001604051908101604052809291908181526020018280546129c190613f91565b8015612a0e5780601f106129e357610100808354040283529160200191612a0e565b820191906000526020600020905b8154815290600101906020018083116129f157829003601f168201915b505050505090806001018054612a2390613f91565b80601f0160208091040260200160405190810160405280929190818152602001828054612a4f90613f91565b8015612a9c5780601f10612a7157610100808354040283529160200191612a9c565b820191906000526020600020905b815481529060010190602001808311612a7f57829003601f168201915b505050505090806002018054612ab190613f91565b80601f0160208091040260200160405190810160405280929190818152602001828054612add90613f91565b8015612b2a5780601f10612aff57610100808354040283529160200191612b2a565b820191906000526020600020905b815481529060010190602001808311612b0d57829003601f168201915b505050505090806003018054612b3f90613f91565b80601f0160208091040260200160405190810160405280929190818152602001828054612b6b90613f91565b8015612bb85780601f10612b8d57610100808354040283529160200191612bb8565b820191906000526020600020905b815481529060010190602001808311612b9b57829003601f168201915b505050505090806004018054612bcd90613f91565b80601f0160208091040260200160405190810160405280929190818152602001828054612bf990613f91565b8015612c465780601f10612c1b57610100808354040283529160200191612c46565b820191906000526020600020905b815481529060010190602001808311612c2957829003601f168201915b5050505050905085565b612c5933610a58565b80612caf575060008054906101000a900473ffffffffffffffffffffffffffffffffffffffff1673ffffffffffffffffffffffffffffffffffffffff163373ffffffffffffffffffffffffffffffffffffffff16145b612cee576040517f08c379a0000000000000000000000000000000000000000000000000000000008152600401612ce59061407a565b60405180910390fd5b81600060038281548110612d0557612d04613f33565b5b90600052602060002090600402016000018054612d2190613f91565b905003612d63576040517f08c379a0000000000000000000000000000000000000000000000000000000008152600401612d5a9061400e565b60405180910390fd5b600560008481526020019081526020016000208281548110612d8857612d87613f33565b5b906000526020600020906003020160008082016000612da79190612fc8565b600182016000612db79190612fc8565b600282016000612dc79190612fc8565b5050505050565b60028181548110612dde57600080fd5b9060005260206000209060030201600091509050806000018054612e0190613f91565b80601f0160208091040260200160405190810160405280929190818152602001828054612e2d90613f91565b8015612e7a5780601f10612e4f57610100808354040283529160200191612e7a565b820191906000526020600020905b815481529060010190602001808311612e5d57829003601f168201915b505050505090806001018054612e8f90613f91565b80601f0160208091040260200160405190810160405280929190818152602001828054612ebb90613f91565b8015612f085780601f10612edd57610100808354040283529160200191612f08565b820191906000526020600020905b815481529060010190602001808311612eeb57829003601f168201915b505050505090806002018054612f1d90613f91565b80601f0160208091040260200160405190810160405280929190818152602001828054612f4990613f91565b8015612f965780601f10612f6b57610100808354040283529160200191612f96565b820191906000526020600020905b815481529060010190602001808311612f7957829003601f168201915b5050505050905083565b6040518060800160405280606081526020016060815260200160608152602001606081525090565b508054612fd490613f91565b6000825580601f10612fe65750613005565b601f0160209004906000526020600020908101906130049190613008565b5b50565b5b80821115613021576000816000905550600101613009565b5090565b6000604051905090565b600080fd5b600080fd5b6000819050919050565b61304c81613039565b811461305757600080fd5b50565b60008135905061306981613043565b92915050565b6000602082840312156130855761308461302f565b5b60006130938482850161305a565b91505092915050565b600081519050919050565b600082825260208201905092915050565b60005b838110156130d65780820151818401526020810190506130bb565b60008484015250505050565b6000601f19601f8301169050919050565b60006130fe8261309c565b61310881856130a7565b93506131188185602086016130b8565b613121816130e2565b840191505092915050565b6000608083016000830151848203600086015261314982826130f3565b9150506020830151848203602086015261316382826130f3565b9150506040830151848203604086015261317d82826130f3565b9150506060830151848203606086015261319782826130f3565b9150508091505092915050565b600060208201905081810360008301526131be818461312c565b905092915050565b600080fd5b600080fd5b7f4e487b7100000000000000000000000000000000000000000000000000000000600052604160045260246000fd5b613208826130e2565b810181811067ffffffffffffffff82111715613227576132266131d0565b5b80604052505050565b600061323a613025565b905061324682826131ff565b919050565b600067ffffffffffffffff821115613266576132656131d0565b5b61326f826130e2565b9050602081019050919050565b82818337600083830152505050565b600061329e6132998461324b565b613230565b9050828152602081018484840111156132ba576132b96131cb565b5b6132c584828561327c565b509392505050565b600082601f8301126132e2576132e16131c6565b5b81356132f284826020860161328b565b91505092915050565b600080600080608085870312156133155761331461302f565b5b600085013567ffffffffffffffff81111561333357613332613034565b5b61333f878288016132cd565b945050602085013567ffffffffffffffff8111156133605761335f613034565b5b61336c878288016132cd565b935050604085013567ffffffffffffffff81111561338d5761338c613034565b5b613399878288016132cd565b925050606085013567ffffffffffffffff8111156133ba576133b9613034565b5b6133c6878288016132cd565b91505092959194509250565b6133db81613039565b82525050565b60006020820190506133f660008301846133d2565b92915050565b600073ffffffffffffffffffffffffffffffffffffffff82169050919050565b6000613427826133fc565b9050919050565b6134378161341c565b811461344257600080fd5b50565b6000813590506134548161342e565b92915050565b6000602082840312156134705761346f61302f565b5b600061347e84828501613445565b91505092915050565b60008115159050919050565b61349c81613487565b82525050565b60006020820190506134b76000830184613493565b92915050565b600080604083850312156134d4576134d361302f565b5b60006134e28582860161305a565b92505060206134f38582860161305a565b9150509250929050565b600082825260208201905092915050565b60006135198261309c565b61352381856134fd565b93506135338185602086016130b8565b61353c816130e2565b840191505092915050565b60006060820190508181036000830152613561818661350e565b90508181036020830152613575818561350e565b90508181036040830152613589818461350e565b9050949350505050565b60008060008060008060c087890312156135b0576135af61302f565b5b60006135be89828a0161305a565b965050602087013567ffffffffffffffff8111156135df576135de613034565b5b6135eb89828a016132cd565b955050604087013567ffffffffffffffff81111561360c5761360b613034565b5b61361889828a016132cd565b945050606087013567ffffffffffffffff81111561363957613638613034565b5b61364589828a016132cd565b935050608087013567ffffffffffffffff81111561366657613665613034565b5b61367289828a016132cd565b92505060a087013567ffffffffffffffff81111561369357613692613034565b5b61369f89828a016132cd565b9150509295509295509295565b600080600080608085870312156136c6576136c561302f565b5b60006136d48782880161305a565b945050602085013567ffffffffffffffff8111156136f5576136f4613034565b5b613701878288016132cd565b935050604085013567ffffffffffffffff81111561372257613721613034565b5b61372e878288016132cd565b925050606085013567ffffffffffffffff81111561374f5761374e613034565b5b61375b878288016132cd565b91505092959194509250565b600081519050919050565b600082825260208201905092915050565b6000819050602082019050919050565b600060808301600083015184820360008601526137b082826130f3565b915050602083015184820360208601526137ca82826130f3565b915050604083015184820360408601526137e482826130f3565b915050606083015184820360608601526137fe82826130f3565b9150508091505092915050565b60006138178383613793565b905092915050565b6000602082019050919050565b600061383782613767565b6138418185613772565b93508360208202850161385385613783565b8060005b8581101561388f5784840389528151613870858261380b565b945061387b8361381f565b925060208a01995050600181019050613857565b50829750879550505050505092915050565b600060208201905081810360008301526138bb818461382c565b905092915050565b60008060008060008060c087890312156138e0576138df61302f565b5b60006138ee89828a0161305a565b96505060206138ff89828a0161305a565b955050604087013567ffffffffffffffff8111156139205761391f613034565b5b61392c89828a016132cd565b945050606087013567ffffffffffffffff81111561394d5761394c613034565b5b61395989828a016132cd565b935050608087013567ffffffffffffffff81111561397a57613979613034565b5b61398689828a016132cd565b92505060a087013567ffffffffffffffff8111156139a7576139a6613034565b5b6139b389828a016132cd565b9150509295509295509295565b6139c98161341c565b82525050565b60006020820190506139e460008301846139c0565b92915050565b600080600080600060a08688031215613a0657613a0561302f565b5b6000613a148882890161305a565b9550506020613a258882890161305a565b945050604086013567ffffffffffffffff811115613a4657613a45613034565b5b613a52888289016132cd565b935050606086013567ffffffffffffffff811115613a7357613a72613034565b5b613a7f888289016132cd565b925050608086013567ffffffffffffffff811115613aa057613a9f613034565b5b613aac888289016132cd565b9150509295509295909350565b600081519050919050565b600082825260208201905092915050565b6000819050602082019050919050565b60006060830160008301518482036000860152613b0282826130f3565b91505060208301518482036020860152613b1c82826130f3565b91505060408301518482036040860152613b3682826130f3565b9150508091505092915050565b6000613b4f8383613ae5565b905092915050565b6000602082019050919050565b6000613b6f82613ab9565b613b798185613ac4565b935083602082028501613b8b85613ad5565b8060005b85811015613bc75784840389528151613ba88582613b43565b9450613bb383613b57565b925060208a01995050600181019050613b8f565b50829750879550505050505092915050565b60006020820190508181036000830152613bf38184613b64565b905092915050565b600060a0820190508181036000830152613c15818861350e565b90508181036020830152613c29818761350e565b90508181036040830152613c3d818661350e565b90508181036060830152613c51818561350e565b90508181036080830152613c65818461350e565b90509695505050505050565b60006080820190508181036000830152613c8b818761350e565b90508181036020830152613c9f818661350e565b90508181036040830152613cb3818561350e565b90508181036060830152613cc7818461350e565b905095945050505050565b600080600080600060a08688031215613cee57613ced61302f565b5b6000613cfc8882890161305a565b955050602086013567ffffffffffffffff811115613d1d57613d1c613034565b5b613d29888289016132cd565b945050604086013567ffffffffffffffff811115613d4a57613d49613034565b5b613d56888289016132cd565b935050606086013567ffffffffffffffff811115613d7757613d76613034565b5b613d83888289016132cd565b925050608086013567ffffffffffffffff811115613da457613da3613034565b5b613db0888289016132cd565b9150509295509295909350565b600081519050919050565b600082825260208201905092915050565b6000819050602082019050919050565b600060a0830160008301518482036000860152613e0682826130f3565b91505060208301518482036020860152613e2082826130f3565b91505060408301518482036040860152613e3a82826130f3565b91505060608301518482036060860152613e5482826130f3565b91505060808301518482036080860152613e6e82826130f3565b9150508091505092915050565b6000613e878383613de9565b905092915050565b6000602082019050919050565b6000613ea782613dbd565b613eb18185613dc8565b935083602082028501613ec385613dd9565b8060005b85811015613eff5784840389528151613ee08582613e7b565b9450613eeb83613e8f565b925060208a01995050600181019050613ec7565b50829750879550505050505092915050565b60006020820190508181036000830152613f2b8184613e9c565b905092915050565b7f4e487b7100000000000000000000000000000000000000000000000000000000600052603260045260246000fd5b7f4e487b7100000000000000000000000000000000000000000000000000000000600052602260045260246000fd5b60006002820490506001821680613fa957607f821691505b602082108103613fbc57613fbb613f62565b5b50919050565b7f437573746f6d657220646f6573206e6f742065786973742e0000000000000000600082015250565b6000613ff86018836134fd565b915061400382613fc2565b602082019050919050565b6000602082019050818103600083015261402781613feb565b9050919050565b7f4f6e6c79206f776e6572206f722061646d696e20686173206163636573730000600082015250565b6000614064601e836134fd565b915061406f8261402e565b602082019050919050565b6000602082019050818103600083015261409381614057565b9050919050565b60008190508160005260206000209050919050565b60006020601f8301049050919050565b600082821b905092915050565b6000600883026140fc7fffffffffffffffffffffffffffffffffffffffffffffffffffffffffffffffff826140bf565b61410686836140bf565b95508019841693508086168417925050509392505050565b6000819050919050565b600061414361413e61413984613039565b61411e565b613039565b9050919050565b6000819050919050565b61415d83614128565b6141716141698261414a565b8484546140cc565b825550505050565b600090565b614186614179565b614191818484614154565b505050565b5b818110156141b5576141aa60008261417e565b600181019050614197565b5050565b601f8211156141fa576141cb8161409a565b6141d4846140af565b810160208510156141e3578190505b6141f76141ef856140af565b830182614196565b50505b505050565b600082821c905092915050565b600061421d600019846008026141ff565b1980831691505092915050565b6000614236838361420c565b9150826002028217905092915050565b61424f8261309c565b67ffffffffffffffff811115614268576142676131d0565b5b6142728254613f91565b61427d8282856141b9565b600060209050601f8311600181146142b0576000841561429e578287015190505b6142a8858261422a565b865550614310565b601f1984166142be8661409a565b60005b828110156142e6578489015182556001820191506020850194506020810190506142c1565b8683101561430357848901516142ff601f89168261420c565b8355505b6001600288020188555050505b505050505050565b7f4e487b7100000000000000000000000000000000000000000000000000000000600052601160045260246000fd5b600061435282613039565b91507fffffffffffffffffffffffffffffffffffffffffffffffffffffffffffffffff820361438457614383614318565b5b600182019050919050565b7f4f6e6c79206f776e657220686173206163636573730000000000000000000000600082015250565b60006143c56015836134fd565b91506143d08261438f565b602082019050919050565b600060208201905081810360008301526143f4816143b8565b905091905056fea2646970667358221220850015ea826a6ef94842ddb3eee25a225792fa036b02db5da1cdfa965898175d64736f6c634300081b0033",
  "linkReferences": {},
  "deployedLinkReferences": {}
}